:020000040800F2
:100000000000012079340508F9340508E9420308A5
:100010004D430308F9340508F934050800000000D1
:10002000000000000000000000000000F934050896
:10003000F934050800000000F93405089943030865
:10004000F9340508F9340508F9340508F9340508C8
:10005000F9340508F9340508D9C5020805C70208AE
:10006000C9C602088DC6020851C602083912010825
:10007000291201081912010809120108F5110108D5
:10008000E1110108CD110108F9340508F93405081A
:10009000F9340508F9340508F934050815C60208CD
:1000A000B9D4000841D50008A9D4000869D50008D2
:1000B00031D5000821D5000811D5000849120108E2
:1000C0006D120108F9340508F9340508F9340508FA
:1000D000F934050851D0000845D0000839D000088F
:1000E0009DC50208F9340508F934050899D40008BB
:1000F000C9D40008F9340508F1D40008B911010881
:10010000F9340508F934050801D50008F934050863
:100110002DD0000821D00008F9340508C3EA0108F1
:10012000A5110108911101087D110108691101084B
:100130005511010800000000000000000000000050
:1001400000000000000000000000000003F50108AE
:10015000411101082D1101081911010815D00008DD
:10016000F9340508F9340508F9340508F9340508A7
:10017000F9340508F934050800000000000000000B
:10018000F9340508F9340508F9340508F934050887
:10019000F9340508F934050800000000F9340508B1
:1001A000000000000000000000000000F934050815
:1001B000F9340508F93405080000000000000000CB
:1001C000000000000000000000000000000000002F
:1001D000000000000000000000000000F9340508E5
:0801E000C82F0500010000001A
:1001E8001002010018200120142001200000000046
:1001F800C40700081F021000342001202420012019
:1002080000000000F582000803000100B04701204B
:10021800C04701200000000000000000101002008C
:10022800B8470120C447012000000000C6070008A5
:1002380025202C0184440120C8470120000000002B
:10024800000000001900050020440120F4480120A6
:1002580000000000C80700081A000E00BC4001207A
:10026800FC48012000000000CE070008F821060025
:10027800284301200C49012000000000DC07000889
:1002880020320A00304301201449012000000000F8
:1002980091200108150070003842012020490120F2
:1002A80000000000000000002A0060005C430120FC
:1002B8009049012000000000FD1801080B301A00C9
:1002C800B0530120AC5E012000000000E4070008E4
:1002D8001F30240078530120C85E01200000000070
:1002E8000008000805020400A85C0120EC5E01205B
:1002F800000000002408000803010A002853012018
:10030800F05E0120000000002808000801200C0011
:10031800706601200C6F0120000000003208000800
:100328000A7028000C650120186F012000000000E9
:10033800B56C03080EB07A0190630120406F01206C
:1003480000000000B120010801010400E062012062
:10035800BC70012000000000000000000001040043
:10036800D8620120C0700120000000003E0800088B
:1003780002010300D4620120C470012000000000C3
:10038800DDDA040822021401506B0120C870012034
:1003980000000000D18C00080C20CC00546501201E
:1003A800DC710120000000009DDA0408010205004C
:1003B800EC620120A8720120000000005926020802
:1003C80000020500C4690120B0720120000000008D
:1003D800000000001B02100090690120B872012083
:1003E80000000000F18400081E0006000C670120D0
:1003F800C872012000000000420800081B100C0011
:100408008C600120D072012000000000E931020850
:100418002102F000105F0120DC72012000000000C2
:10042800CD3002081A023C004C75012024780120C6
:10043800000000009D8B000827000400447501207F
:10044800607801200000000048080008381001000A
:100458006874012064780120000000004C0800083E
:100468002C001000948101208481012000000000EC
:100478001D8903082B002400C8810120A4810120C4
:1004880000000000ED8803082920780088800120FA
:10049800EC8101200000000000000000F6210C00A3
:1004A800F47F012064820120000000005008000849
:1004B8001C021000907C0120B48201200000000082
:1004C80051840008281010007C7F0120C48201207C
:1004D80000000000156D030823121000248C012071
:1004E800B08C0120000000005C0800080510060020
:1004F8001C8C0120C08C0120000000006C08000842
:1005080037102A00608C0120C88C012000000000F0
:10051800720800080E020200148C0120F48C0120DD
:10052800000000009C080008161006008C840120BA
:10053800F88C0120000000009E0800082F102200FF
:100548008C8C0120008D012000000000A408000808
:10055800F561CC0080830120248D0120000000007B
:10056800E92F020826100E00008E0120F08D0120D0
:1005780000000000A5260408140003006488012078
:100588003C8E012000000000C608000823100E0061
:10059800D8A501205CA70120000000002D6D0308EC
:1005A8000D003C0058A501206CA7012000000000A8
:1005B800B1F70308040080009CA40120A8A701202B
:1005C8000000000000000000130004007CA40120CB
:1005D80028A8012000000000CC080008FD011E002A
:1005E8005CA401202CA80120000000002DFB0208BB
:1005F80018202E0028A401204CA80120000000008B
:100608005D8C000806101A000CA401207CA80120AB
:100618000000000011210108FB01010008A40120CD
:1006280098A80120000000002D8C0008FC0109009A
:10063800D4A201209CA80120000000003D8C0008E5
:1006480016023F0094A20120A8A801200000000083
:100658003D83000834001000C4A10120E8A801204F
:1006680000000000E1200108110208009CA10120FF
:10067800F8A8012000000000D008000812120400A9
:1006880094A1012000A9012000000000D80800085A
:100698001220100084A1012004A9012000000000FC
:1006A800DC080008F9010400D89D012014A90120E4
:1006B800000000007D94020813020400D49D01206C
:1006C80018A9012000000000EC080008FA01030046
:1006D800609B01201CA9012000000000558500082E
:1006E800020203006492012020A9012000000000FA
:1006F800000000000C0204005092012024A90120EF
:10070800000000007D840008FE01140048980120C4
:1007180028A90120000000001D840008070202002B
:10072800DCB0012060B1012000000000F0080008E2
:1007380003123D0000B1012064B101200000000057
:10074800F208000802000C00B0B00120A4B101209A
:10075800000000000000000006021000A0B0012008
:10076800B0B10120000000001D8D0008081214001F
:1007780028AD0120C0B101200000000095840008C8
:10078800F701060020AD0120D4B1012000000000CF
:10079800300900081D0202001CAD0120DCB1012057
:1007A80000000000360900080A020A0088AC01208F
:0C07B800E0B1012000000000A5DC0408F6
:1007C400000000050000280100007E05EA05B405CC
:1007D4003200E803D00700000401F4011400000013
:1007E400AE014A015E012C01640101000000010018
:1007F4000A019A01001E0A00000000000000000027
:1008040000010000000500000102030000000000D8
:10081400000000000000000000000000008007004D
:1008240000000000040101006C1600000000E80351
:100834006400040A000114001E00FA000000000015
:100844000100000020030000000000000000000080
:10085400010000000202000000000000000000008F
:100864000000000000000000200001010000200042
:100874003200C800D0079600140032002800B004EB
:1008840040060005500014000F0008006400010039
:10089400010005000A0000000000C409000019005E
:1008A4000000000000000000000000000000000044
:1008B4000000000000000000000000000000000034
:1008C4000000030000000000088445301E293E009B
:1008D40001010101FFFFFFFF000000010000054DC1
:1008E400584B37000000000000000100013C0000EC
:1008F40000000000000000000000000000000000F4
:1009040000000000000000000000000000000000E3
:1009140000000000000000000000000000000000D3
:100924000000000000000000000001003F01000082
:0409340000000000BF
:10093800E9D9010801CF010891020208000000006E
:10094800000000008DF30108C5F301080000000055
:100958000000000000000000EDC00108E1C001082F
:10096800D5C00108C9C0010819F300083985000875
:1009780035850008318500082D8E00082D85000872
:100988002985000844550508FF01FF000068214C2F
:100998001F0000001C0000001F0000001E000000D7
:1009A8001F0000001E0000001F0000001F000000C4
:1009B8001E0000001F0000001E0000001F000000B5
:1009C800FFFFFFFF00000000040100000007000017
:1009D80000000000000000000002000010000000FD
:1009E800000000000000000007000000B001000047
:1009F8000200000009000000FFFFFFFF7D0000006B
:100A08000000803F0000000000000000000000001F
:100A18000000803F0000000000000000000000000F
:100A280000000000000000000000000000000000BE
:100A380000000000000000000000803F00000000EF
:100A4800000000000000000001000000FFFFFFFFA1
:100A58000000803F000000000000000000000000CF
:100A68000000803F00C20100000008000A060002E2
:100A7800000000400100000009026400030100C0FA
:100A880032090400000103000000092111010001DE
:100A98002226000705830308000A080B0102020248
:100AA80001000904010001020201000524001001EF
:100AB8000524010002042402020524060102070598
:100AC80082030800FF09040200020A00000007056B
:100AD8000102400000070581024000007FDA01089A
:100AE8004BCF010895040208000000004DC1010821
:100AF800ABC1010879C10108000000000000000036
:100B08000000000035C1010841C1010829C10108E0
:100B18001DC101081A0300000000000000000000C9
:100B280000000000000000000000000000000000BD
:100B3800040309040A060002000000400100000046
:100B480009072000010104C0320904000002080658
:100B5800500507058102400000070501024000001A
:100B680009022000010104C032090400000208063D
:100B780050050705810240000007050102400000FA
:100B880009022000010104C032090400000208061D
:100B98005005070581020002000705010200020056
:100BA8000A060002000000400100000009022200BD
:100BB800010100E0320904000001030102000921DB
:100BC800110100012226000705830308000A00001E
:100BD8000A06000200000040010000000907430067
:100BE800020104C0320904000001020201000524C8
:100BF8000010010524010001042402020524060056
:100C080001070582030800FF09040100020A000029
:100C180000070501024000000705810240000000AE
:100C280009024300020100C0320904000001020267
:100C3800010005240010010524010001042402021A
:100C480005240600010705820308001009040100B5
:100C5800020A0000000705010200020007058102E0
:100C68000002000009024300020100C0320904002A
:100C78000001020201000524001001052401000101
:100C88000424020205240600010705820308001057
:100C980009040100020A00000007050102400000E3
:100CA800070581024000000060630508000000009D
:100CB800000000000000000000000000000000002C
:100CC800000000000000000000000000000000001C
:100CD80000FF000000000000000000003463050869
:100CE80000000000000000000000000000000000FC
:100CF80000000000000000000000000000000000EC
:100D080000000000AA5505010000010012010002C0
:100D18000000004083042A5700020102030100007A
:100D28001201000202000040830440570002010241
:100D38000301000012010002EF0201408304563251
:100D48000002010203010000FF1FFF1F0501090542
:100D5800A101A1000501093009310932093309351A
:100D68000934094009381581257F750895088102DD
:100D7800C0C000000921110100012226002D202DEC
:100D88002D202D2D2D2D202D2D2D2D000000000086
:100D9800000000000000000000000000AA550B0140
:100DA8000000AA5505010000AA5507010000AA5530
:100DB8000902000000AA5503009F0000010000007E
:100DC800C012000000000100E0010100992602089D
:100DD80000000000E4640508FFFFFFFF08FF0000B3
:100DE80000000000000000002C7E05080000000044
:100DF80000000000D87D05080101FFFF2D202D2DE2
:100E0800202D2D2D2D202D2D2D000000000000005F
:100E180000000000000000000000000000000000CA
:100E280000000000687D050801000000FA000000CD
:100E380001000000010000006C6601200000F401C0
:100E4800010000006A6601200000F40101000000B2
:100E5800686601200000F4010100000066660120B8
:100E68000000F40101000000646601200000F401A4
:100E780001000000626601200000F401010000008A
:100E8800606601200000F40101000000712E0208D4
:100E9800352E0208986A05085466012005320100BB
:100EA80052660120E803D0070100000050660120C7
:100EB800E803D007010000004E660120E803D007D0
:100EC800010000004C6601201E00B80B0100000064
:100ED8005A66012005000F00010000005C66012031
:100EE80003000A00010000004A6601201E00F40108
:100EF800010000005E66012002000000246B050866
:100F080048660120140064000100000056660120B4
:100F18003200E80301000000466601200000C80016
:100F2800010000005365012000C80100526501203E
:100F38000050010051650120005A01004F65012051
:100F480002000000306B050800DB050808DB050817
:100F580006A601200100C4090000000004A6012023
:100F68000100C4090000000002A601200100C40914
:100F78000000000000A601200100C40900000000D4
:100F8800FCA501200100C40900000000FEA5012005
:100F98000100C40900000000FAA501200100C409ED
:100FA80000000000F8A501200100C40900000000AD
:100FB8000363012000C801000263012000C801008A
:100FC800006301200100C80001000000FE6201204A
:100FD8003200307532000000FC62012005820500F5
:100FE800FA62012005002C0105000000F9620120C9
:100FF800055A0500F662012000FF0100F862012091
:101008000200000018060120F4620120030000001D
:10101800C4B40508F562012000FF0100F762012051
:101028000200000018060120F362012003000000FE
:10103800C4B40508D12D02086D2D02083C6B0508C3
:1010480080660120EE02CA08010000007E660120C9
:1010580000C80100640000007D66012000C801008E
:10106800640000007C660120020000002C6C05086A
:10107800E662012080C1803E05000000E462012094
:1010880080C1803E05000000DE62012080C1803EF4
:1010980005000000DC62012080C1803E05000000E0
:1010A800D762012000FF0100D26201206400F40130
:1010B80001000000D062012004000000386C05081F
:1010C800CF620120020000004C6C050881630120FA
:1010D8000D000000586C05087E63012000640100C3
:1010E8007C630120320010270A0000007B63012086
:1010F8000D000000586C05087A6301200D000000FF
:10110800586C05087963012002000000906C0508FE
:1011180000000000000000009C6C05085C5C0120D9
:101128009CFF2C0100000000746D0120E0150C17D5
:1011380000000000496A012002000000D46C050884
:101148008C6601200100FF7F010000008B660120F2
:1011580002000000E06C0508836301200300000022
:10116800F06C05088263012003000000F06C05089C
:10117800406501200000E803010000003E650120F1
:101188000000E803010000003C6501200000E803BE
:10119800010000003A6501200000E803010000009A
:1011A800386501200000E8030100000036650120D1
:1011B8000000E8030100000035650120001401006B
:1011C8003465012003000000006D05084E6501200C
:1011D80002000000106D05084C6501200000F401B4
:1011E800010000004A6501200000F4010100000030
:1011F800486501200000F401010000004665012057
:101208000000F40101000000446501200000803E58
:1012180001000000426501200000803E010000003E
:1012280033660120196401003266012002000000C3
:101238001C6D050830660120E803D0070A0000008D
:101248002E660120006401000A00000023660120C8
:101258000064010022660120006401002A66012062
:10126800006401000A0000002966012000640100F2
:101278000A00000028660120006401000A0000003E
:101288002D660120006401000A0000002C66012080
:10129800006401000A0000002B66012000640100C0
:1012A8000A0000002766012001FF01000A00000073
:1012B8002666012001FF01000A00000025660120C2
:1012C80001FF01000A0000008C6301200000F40106
:1012D800010000008A6301200000F4010100000001
:1012E800886301200000F4010100000086630120EA
:1012F8000000F40101000000846301200000F401F3
:10130800010000005B6A012000C801005A6A012040
:1013180000640100596A012000640100586A012034
:1013280000640100576A012000640100566A012028
:10133800FF080100556A012001640100D92C020848
:101348009D2C0208286D0508546A012000640100DC
:10135800526A01201400E80301000000506A0120CD
:10136800E80330750A0000004E6A012000C8010039
:101378004D6A012000C801004C6A012000C8010024
:101388004B6A0120006401000A0000006A6A01201B
:101398000000D00701000000646A012000C80100B5
:1013A800636A012000C80100626A012000C80100C8
:1013B800686A01200000D00701000000616A01206E
:1013C80000C80100606A012000C801005F6A0120AE
:1013D80000C80100666A01200000D0070100000073
:1013E8005E6A012000C801005D6A012000C8010092
:1013F8005C6A012000C8010000000000792A020888
:10140800986D05087763012039000000346E0508DF
:101418007663012000C8010074630120E803D00747
:10142800010000004D584B4637323200F26201206D
:1014380000030100F162012000030100B529020840
:10144800692902081C6F050825290208D9280208FD
:10145800A86F0508012A0208C55B0208287005085C
:10146800E862012001030100D92E0208AD2E02080E
:10147800547305085D28020811280208C47305087A
:101488008F2A0208AD7B0208607405089170020873
:1014980000000000087505089D5F0208392F020842
:1014A800A4750508E92A020800000000247605084A
:1014B800C12B02086D2B020888760508592C0208F2
:1014C800152C02082477050801930208152D020837
:1014D800B07705084566012001060100312B020896
:1014E800FD2A0208AC78050867920208295C020800
:1014F8001C79050845930208C15C0208187A05089A
:101508004466012001030100492A0208192A020839
:10151800EC7A0508052F020800000000507B05083A
:10152800A9280208955B0208B47B050800000000A2
:1015380000000000407C0508452D0208395D0208BE
:10154800C07C0508CA62012088136F1701000000DB
:10155800CC62012088136F17000000004AA6012002
:10156800000000000000000048A601200000000064
:101578000000000046A60120000000000000000056
:1015880044A60120000000000000000042A601203F
:10159800000000000000000040A60120000000003C
:1015A800000000009004012000000000000000007E
:1015B800A062012003000000747E0508C8620120B3
:1015C80088136F17010000009E5C012088136F17B5
:1015D800000000005127020800000000847E050872
:1015E8004A6A012001000000D87E0508A05C01209D
:1015F80001000000E47E0508965C0120020000005E
:10160800EC7E05080000000000000000F87E0508D8
:101618003927020800000000947F05080000000038
:1016280000000000E87F050800000000000000003E
:1016380058800508CE62012002000000908005084D
:101648009A5C0120E0150C1700000000FFFF000065
:10165800FFFFFFFF282F060800000802050304000B
:10166800302F06080100080205040400E84D0608AA
:101678000200FE010110030070DF050803001402D8
:1016880000030000382F060804001F0201000800AC
:10169800402F060805001F0201010800685E0C00C3
:1016A800FF010000A00F0000B80B00000102FFFFBF
:1016B80001000000D6010000B80B00000100000086
:1016C8000001010100010100C5CE0108BDC00108EB
:1016D8008DCE0108A1CE010875C0010879CE010898
:1016E80063CE010835BF010819BF0108D5BE01083E
:1016F80000000000C9BE0108B5BE0108A1BE01086E
:1017080000000000000000000000000000000000D1
:1017180095BE01080000000089BE0108CDE9010856
:1017280085BE010805BE0108EDBD01080182000063
:10173800FFFFFFFF108E012000000000348E012003
:1017480000000000010000001000010000600240DD
:10175800106002400000000000000000000B0000C4
:1017680000000000000000000000000000600240CF
:10177800286002400100000000000000060C000084
:1017880000000000000000000000000000600240AF
:10179800406002400200000000000000100D000040
:1017A800000000000000000000000000006002408F
:1017B800586002400300000000000000160E000000
:1017C800000000000000000000000000006002406F
:1017D800706002400400000000000000200F0000BC
:1017E800000000000000000000000000006002404F
:1017F800886002400500000000000000261000007C
:10180800000000000000000000000000006002402E
:10181800A060024006000000000000003011000037
:10182800000000000000000000000000006002400E
:10183800B86002400700000000000000362F0000DA
:1018480000000000000000000000000000640240EA
:101858001064024000000000000000000038000092
:1018680000000000000000000000000000640240CA
:101878002864024001000000000000000639000052
:1018880000000000000000000000000000640240AA
:10189800406402400200000000000000103A00000E
:1018A800000000000000000000000000006402408A
:1018B800586402400300000000000000163B0000CE
:1018C800000000000000000000000000006402406A
:1018D800706402400400000000000000203C00008A
:1018E800000000000000000000000000006402404A
:1018F8008864024005000000000000002644000043
:101908000000000000000000000000000064024029
:10191800A0640240060000000000000030450000FE
:101928000000000000000000000000000064024009
:10193800B8640240070000000000000036460000BE
:10194800000000000000000000000000C42F06088E
:101958008846060800000000F1DA0408A0860100A5
:10196800040000000000000000000000000000006B
:10197800000000000000000000000000000000005F
:10198800000000000000000000000000C42F06084E
:101998003847060800000000F1FA0208E8030000D2
:1019A800040000000000000000000000000000002B
:1019B800000000000000000000000000000000001F
:1019C80000000000000000000000000018E3050807
:1019D8008C03060800000000B10A00007D0000002A
:1019E80006000000000000000000000000000000E9
:1019F80000000000000000000000000000000000DF
:101A08000000000000000000000000001C2F060875
:101A180000000000000000008D0F0308E80300002C
:101A280003000000000000000000000000000000AB
:101A3800000000000000000000000000000000009E
:101A480000000000000000000000000040470608F9
:101A58000000000000000000756E0108102700005B
:101A6800030000000000000000000000000000006B
:101A7800000000000000000000000000000000005E
:101A8800000000000000000000000000342F0608DD
:101A9800000000003D850308191803085F76000060
:101AA8000500000000000000000000000000000029
:101AB800000000000000000000000000000000001E
:101AC800000000000000000000000000843206084A
:101AD8000000000000000000E16303081027000078
:101AE80001000000000000000000000000000000ED
:101AF80000000000000000000000000000000000DE
:101B08000000000000000000000000004C4706082C
:101B18000000000000000000F5FA0208E8030000D9
:101B280005000000000000000000000000000000A8
:101B3800000000000000000000000000000000009D
:101B480000000000000000000000000058470608E0
:101B5800000000000000000081020508204E00007F
:101B6800030000000000000000000000000000006A
:101B7800000000000000000000000000000000005D
:101B88000000000000000000000000006847060890
:101B980000000000000000006D000508204E000055
:101BA800030000000000000000000000000000002A
:101BB800000000000000000000000000000000001D
:101BC8000000000000000000000000007847060840
:101BD800000000000000000001010308400D0300A0
:101BE80003000000000000000000000000000000EA
:101BF80000000000000000000000000000000000DD
:101C0800000000000000000000000000843006080A
:101C1800000000000000000045F90308102700003C
:101C280001000000000000000000000000000000AB
:101C3800000000000000000000000000000000009C
:101C48000000000000000000000000007CEC050817
:101C58000000000000000000593D020810270000A5
:101C68000300000000000000000000000000000069
:101C7800000000000000000000000000000000005C
:101C8800000000000000000000000000884706086F
:101C98000000000000000000ADBD0308A0860100A0
:101CA800010000000000000000000000000000002B
:101CB800000000000000000000000000000000001C
:101CC800000000000000000000000000D4E005084B
:101CD8000000000000000000A5FE020850C300003C
:101CE80001000000000000000000000000000000EB
:101CF80000000000000000000000000000000000DC
:101D08000000000000000000000000005CDE050884
:101D18000000000000000000A9FB0208A861000004
:101D280001000000000000000000000000000000AA
:101D3800000000000000000000000000000000009B
:101D480000000000000000000000000090470608A6
:101D58000000000000000000DD7C0208A0860100F1
:101D6800010000000000000000000000000000006A
:101D7800000000000000000000000000000000005B
:101D88000000000000000000000000008C3206087F
:101D98000000000000000000F5440308A00F000048
:101DA800010000000000000000000000000000002A
:101DB800000000000000000000000000000000001B
:101DC8000000000000000000000000009C4706081A
:101DD8000000000000000000ED7602081027000057
:101DE80001000000000000000000000000000000EA
:101DF80000000000000000000000000000000000DB
:101E0800000000000000000000000000C0EA050813
:101E18000000000000000000057104081A410000DD
:101E280001000000000000000000000000000000A9
:101E3800000000000000000000000000000000009A
:101E48000000000000000000000000001CDE050883
:101E58000000000000000000B5CA010810270000BB
:101E68000100000000000000000000000000000069
:101E7800000000000000000000000000000000005A
:101E88000000000000000000000000009C4606085A
:101E98000000000000000000ED8502081A41000063
:101EA8000100000000000000000000000000000029
:101EB800000000000000000000000000000000001A
:101EC800000000000000000000000000A84706080D
:101ED800000000000000000031D10108400D03009F
:101EE80000000000000000000000000000000000EA
:101EF80000000000000000000000000000000000DA
:101F0800000000000000000000000000B0470608C4
:101F18000000000000000000AFE00308400D0300CF
:101F280000000000000000000000000000000000A9
:101F38000000000000000000000000000000000099
:101F4800000000000000000000000000B84706087C
:101F580000000000000000001166020850C30000E5
:101F68000300000000000000000000000000000066
:101F78000000000000000000000000000000000059
:101F8800000000000000000000000000C447060830
:101F98000000000000000000E5FF040840420F00B8
:101FA8000000000000000000000000000000000029
:101FB8000000000000000000000000000000000019
:101FC800000000000000000000000000D0470608E4
:101FD8000000000000000000C1F5030850C3000025
:101FE80000000000000000000000000000000000E9
:101FF80000000000000000000000000000000000D9
:102008000000000000000000000000000000803F09
:102018000000000050B1012008000000000000008E
:1020280040B1012008000000FC160120000000005B
:102038000000000000000000000000000000000098
:102048000000000000000000000000000000000088
:102058000000000000000000000000000000000078
:102068000000000000000000000000000000000068
:102078000000000000000000000000000000000058
:0C2088000000000000000000000000004C
:1020940034070020000000000000000001000000E0
:0C20A4000000803F0000803F2000000092
:1080000003685A1C02601970704700BF2DE9F047E1
:10801000089C002B8846074621780CBF4FF02009AA
:108020004FF03009651C29B3002A27DD2B4601E0FB
:108030000246A8B113F8016B501E002EF8D1961E0F
:1080400070B1B2460AF1FF3A49463846C0470AF1D4
:108050000103002BF6DC26EAE6702178013039B105
:10806000041B3846C047281915F8011B0029F8D110
:10807000BDE8F087002A03DC0846F9E70020EFE7B7
:10808000561EDEE70028F0B504DA2D234042013108
:1080900001F8013C092804464FF0010307DD03EB1A
:1080A00083035B00B0FBF3F2092AF8D883B10E48D2
:1080B000A0FB0356B4FBF3F2092A02F1570C02F1BC
:1080C000300708DD03FB1244F30801F801CBEFD1C0
:1080D00000230B70F0BD03FB1244F30801F8017B91
:1080E000E6D100230B70F0BDCDCCCCCC884270B46F
:1080F0004FF0010442D301FB04F4B0FBF4F58D42D0
:10810000F9D2ECB142BB092D04FB150005F157066D
:1081100005F130020EDD03F8016BB4FBF1F47CB124
:10812000B0FBF4F5092D04FB150005F1570605F128
:108130003002F0DC03F8012BB4FBF1F4002CEFD19A
:10814000002270BC1A707047B4FBF1F403F8016BA5
:10815000002CF5D0B0FBF4F5092D04FB150005F15A
:10816000370605F13002EFDC03F8012BB4FBF1F424
:10817000002CEFD1002270BC1A7070470546002A0F
:10818000EAD1C0E72DE9F84F14461D4606464FF4E4
:108190007A720023204629464E4F4AF0A1FF4E4BEB
:1081A0004E4A40F2B55C0344DFF83CA182FB030178
:1081B000D81787FB03784A4F1944984487FB037EFE
:1081C000C0EB6111C0EBE8279E4482FB01824FEABD
:1081D000E179C0EB2E4E8AFB078A0A44C1EB011BF2
:1081E000C9EB62193F4AA3EB8B0BC9EB091982FB60
:1081F0000E824FEAE77886F806B0A1EB8901DFF836
:10820000EC90C8EBAA08717189FB03134FEAEE7179
:1082100008EB4808C1EBE212A7EBC8080CFB12E21E
:10822000C0EBE35386F80480B2F5896F4FEA830010
:108230003CDA40F2DA239A4242DCB2F5B77FDFF84B
:10824000B080B4BF4FF0000E4FF0010E4FEA4E0960
:108250001FFA8EFC09EB0E0308EBC303DF8A09EB60
:108260000E010B2308EBC101163101E031F8027D4C
:10827000974218DD013BF9D1CE44012338F83E7016
:1082800000F5FA6E0132B3702046F444D71B29463C
:108290004FF47A720023A6F800C0F7704AF020FF6E
:1082A0003281BDE8F88F0133DBB2E9E74FF0030C10
:1082B00040F29657DFF838804FF00609E646CEE7E1
:1082C0004FF0020C40F22947DFF824804FF00409F8
:1082D000E646C4E7C5B3A29180BC92C78988888866
:1082E00007452EC273B06D16ABAAAA2A792D0311C9
:1082F000E0520508FF22034600F1100170B41A7025
:10830000023303F8012C8B42F9D10B4B4FF0FF31B4
:10831000002203F10F060C4605E093F9044093F99F
:10832000051013F8032F00EB42059E4200F812409F
:108330006970F2D170BC7047405305083249334B25
:108340002DE9F04F804683B013274FF0000A01F566
:10835000907B2F481022012603E0203098420AD05B
:1083600002799742F9D102680C68A24208D0203005
:1083700001369842F4D1203159453AD00F79E8E7D7
:1083800044794D79A542F2D10AEB4A099646214833
:1083900008F80970C144DFF880C000F5727589F8EB
:1083A00001607246664603E0A84219D050F82C6F6F
:1083B000B242F9D10679A642F6D1CF6806464FF00F
:1083C000000C96460190F268BA4215D00CF1010CEF
:1083D0000C36BCF1030FF6D101987246A842E5D1E4
:1083E0004FF0FF3C203189F802C00AF1010A5945DB
:1083F000C4D103B0BDE8F08F086932698242E5D18B
:108400004FFA8CFCEEE700BFB4610508DCC205083A
:108410001CB90508DCC20508000001400321322216
:10842000142301724FF6FF7142700122C3710023C1
:108430000182027082710271827043818381C381E3
:10844000837430B4312530244571C47030BC70471A
:1084500000231F22342103700223C2700122817382
:108460004370C3714372C37382700272827230B4FC
:10847000332522248571C47230BC704710B42C217E
:10848000012402220023047041708270C3705DF8E1
:10849000044B7047F0B5154B4FF0FF34FF21172701
:1084A00003F10C0EA446162615250022C170017199
:1084B00001724172417381738174C17402EB820253
:1084C000734500EB020185544E708F7081F803C034
:1084D0000C710AD093F9062006335D789E78DF7818
:1084E00093F904C093F90540E8E7F0BD545305083B
:1084F000002306214FF47A7201700373C0E901234F
:10850000704700BF30B41D6995420AD314460A462D
:1085100021448D42996938BF2A1B214430BC4BF05D
:1085200023BB30BC704700BF00207047012070475C
:108530000120704700207047054B002010B49B6855
:108540004FF4007414800B605DF8044B704700BF5B
:10855000E09D01203D22032302704370704700BF5D
:10856000144B2DE9F0471D6884B0ED0A1BD0DFF8ED
:108570004880002604AFC146AC19D8F8001010237B
:108580006A466410D1F824A04846E102D0470F287B
:1085900009DD6B4653F8042B013208D19F42F9D113
:1085A0002546B542E8DCE80204B0BDE8F087661C69
:1085B000F7E700BFD86A0120649B012004307047B0
:1085C00004307047704700BF4161704740F2E933A3
:1085D00000E09BB18268013B12F0020F9BB2F8D021
:1085E000017340F2E93300E043B18268013B12F0CD
:1085F000010F9BB2F8D0C068C0B270470C4A9042DD
:1086000009D00C4B984211D003F58063984201D0F9
:10861000FF2070470223084AD82101FB03239A89CF
:10862000013292B29A819889C0B270470123F2E771
:1086300000300140003800403CAD012038B5044610
:108640000D4600BFC06823F08BFF29466068FFF726
:10865000BDFFE06823F08AFF00BF38BD2DE9F04F71
:10866000DFF8E4C185B0774CDCF800502288C2EB1B
:10867000251352005B43C2EBE502B4F902501B1311
:108680006A43B4F904505D43AD1305EBE225B5F53B
:10869000FA324FEAE579CCF8045049F1FF33CDE9DD
:1086A0000023DDE90032CDE902015343009A01992C
:1086B000A2FB02ABB4F90820009812B20BEB430BFB
:1086C0005143D31700FB0311A2FB00230B441603F5
:1086D0001F0347EA1257B4F90A200FFA82F84FEA4B
:1086E000E87908FB0BF10AFB0913A8FB0A011944FE
:1086F0004FEA102848EA01684FEA212918EB0602E0
:10870000E68849EB0703B6B212F1000843F50049C9
:10871000A8FB060106FB09114A10CB1752EA030118
:1087200000F08E80B4F91060B4F90E0036B200B2D9
:10873000F71706FB0BF10AFB0711A6FB0AAB019E1C
:108740008B4400FB06FEC117009E06FB01EEA0FB5A
:10875000060171444FEA40484FEA4149DCF80810ED
:108760001AEB08064FF0000AC1F5801C49EAD0391F
:108770004BEB09074FEAEC794FEACC701AEB06088D
:108780004FEAC97140F6354641EA5C01B4F90CC0C4
:108790004FEACC0B4BEB0709B0EB080061EB09018A
:1087A0008B46A0FB060106FB0B114AF099FCB4F9BD
:1087B00016204E13804612B2470B02FB06FCD3175D
:1087C00047EAC14707FB03CCA2FB07236344564398
:1087D00007FB0366A2FB07233344560E46EAC31683
:1087E0005F163218B4F914600FFA86FA47EB0103EA
:1087F0004FEAEA7B0AFB01F108FB0B17AAFB080111
:108800003944C60C46EA4136CF1412EB0608B4F9D7
:10881000122043EB07094FEA182112B241EA09611D
:1088200013010B44029A0AB11B0A1360039B23B184
:1088300005EB850580352D121D6005B0BDE8F08F74
:108840000023EFE7B87F01206017012070477047D1
:108850004FF4006383837047012380F854307047DE
:10886000034610B4D0F8FC40D968406964B1D3F82D
:1088700014218C1A013A005D08BF0A465DF8044BCA
:10888000C0B2C3F8142170471A6A805C01328A4270
:1088900028BF2246C0B25DF8044B1A62704700BF81
:1088A000D0F8003113B190F894017047D0E9090372
:1088B000181AB0FA80F04009704700BFD0E90912D9
:1088C0000369914238BFC918013B8A1AD0F80011D8
:1088D00031B1D0F88011096849680A449A4201D23E
:1088E000981A704700207047D0F8FC306BB1D0F870
:1088F0008431D0F814211B685B689A4201D8981A19
:108900007047C068801A18447047D0E907239A421C
:1089100003D2C0681044C01A7047D01A704700BF15
:10892000F0B4C76982B006461FB1BB883A681B0421
:108930009361726903206D463E4C536823F4805363
:10894000536040F2E93301E0013B54D0916889075C
:10895000FAD5002C4CD034F8023B938140F2E93335
:1089600001E0013B47D09168C907FAD5D3680DB142
:1089700025F8023B0138E4D1516840F2E93341F473
:108980008051516001E0013B35D091688807FAD5EC
:10899000002C47D02378137340F2E93301E0013B08
:1089A00042D09168C907FAD5D368F76905B12B7031
:1089B00017B13B68BA889A619DF8014001209DF883
:1089C00003309DF802109DF8042041EA04219DF82F
:1089D000054042EA03229DF80630A6F8541043EA07
:1089E0000423A6F85620A6F8583002B0F0BC704711
:1089F0004FF6FF73B1E710498A4207D00F4B9A42F6
:108A00000ED003F580639A42D2D102230C4AD821BA
:108A100001FB03239A89013292B29A819B89C7E7AD
:108A20000123F3E7FF23B6E70349F7698A42E5D15B
:108A3000ECE700BF685305080030014000380040F3
:108A40003CAD012013B506230C466A4628210C30A4
:108A500024F058F9F0B19DF8013004219DF8002070
:108A600042EA03229DF8033012B292FBF1F2228017
:108A70009DF8022042EA03229DF8043012B292FBD4
:108A8000F1F262809DF8052043EA02231BB293FBBA
:108A9000F1F3A38002B010BD7FB5002500F10C06F4
:108AA0000C4601230D800DF107024D8030468D806C
:108AB000062124F027F910B9002004B070BD9DF8FC
:108AC00007305B07F8D5062302AA2946304624F072
:108AD00019F90028F0D09DF809209DF8083043EAE4
:108AE00002239DF80B2023809DF80A3043EA0223DD
:108AF0009DF80D2063809DF80C3043EA0223A3808B
:108B0000DBE713B506230C466A4603210C3024F03C
:108B1000F9F8A0B19DF800209DF8013043EA022346
:108B20009DF8022023809DF8033043EA02239DF83C
:108B30000420A3809DF8053043EA0223638002B03D
:108B400010BD07B506236A46F72124F0DBF89DF82F
:108B500001309DF800101B010B4A43EA01339DF8D8
:108B6000021043EA11139DF8031093609DF804303E
:108B70001B0143EA01339DF8051043EA111313600A
:108B800003B05DF804FB00BF6017012024F038BC7F
:108B9000014B18682BF0AABCD07701201D4B1B7825
:108BA00070B5044600F1250593B104221A4920301E
:108BB0004CF05CFB2846142218494CF057FB01236B
:108BC00084F83A30164B1B7873B984F83B3070BD8B
:108BD0002846142213494CF049FB012384F83A300B
:108BE0000F4B1B78002BF0D00F4A012316685568F5
:108BF0009068D16826606560A060E160D1691669FF
:108C00005569906984F83B3026616561A061E16136
:108C100070BD00BF748301203C83012024830120A8
:108C20007583012030D605084483012010B5044621
:108C30000021012027F0ACFD207010BD38B50023C5
:108C4000451E1C460372E1B20134022027F0A0FD4C
:108C5000082C05F8010FF6D138BD00BF38B52E221B
:108C600000214CF00DFA40F2DC540346642140F23E
:108C70001A4040F26C7240F2022519745C82132192
:108C800019249882DA8240F2753040F643021D833F
:108C900099760E250A211C77D8831E2402201A8477
:108CA000012283F82B101872194683F82A0083F8E2
:108CB000225083F82C409A7383F8252083F82920CA
:108CC0000248BDE8384033F0D1BE00BF38D60508B1
:108CD00038B5002305461C4603802146013428464A
:108CE0001EF068F8082CF8D10023284685F8E230F9
:108CF0001946A5F8E430A5F8E630A5F8E830A5F85F
:108D0000EA30A5F8EC30A5F8EE30A5F8F030A5F87B
:108D1000F230BDE838401EF011B800BF10B4272172
:108D2000262401220023047041708270C3705DF814
:108D3000044B70472DE9F84F0A9E894617460021DB
:108D40002022984605460B9C4CF09AF95EB1718939
:108D5000D6E900236982C2F30F40EA81C3F30F42D0
:108D6000EB8228822A83484649F0C4FC17F0100A97
:108D70000FD1431E68B119F803202E2A4DD009EBFC
:108D8000030103E011F8016D2E2E3ED013F1FF33E5
:108D9000F8D208280246CB464FF0000AA8BF0822A6
:108DA0004FF0203305F10806494628466B602B60DA
:108DB000C5F807304AF0D8FE5246594630464AF0C8
:108DC000D3FE6A1EE81D12F8013FA3F16101203BAA
:108DD000192998BF13708242F5D105F10B0116F8DD
:108DE000013BA3F16102203B192A98BF06F8013C20
:108DF000B142F4D1C8F30F421823EF72A5F81A80DC
:108E0000AA82EC612B73BDE8F88FC01A00F1FF3A1B
:108E1000BAF1030FA8BF4FF0030A082B03F1010BAF
:108E2000A8BF0823CB441A46BAE700BF2DE9F04F8C
:108E30001E4685B00C4600200121154627F01CF97E
:108E4000002E61D07319DFF870B3D54E02931CE089
:108E5000002D00F0DD81DBF81430AB4265D0DBF88B
:108E60001030AB4200F09B80DBE90631AB4253D8B7
:108E70008D42C0F07881691A204641F0E7FB013548
:108E8000029B04F500749D423ED0DBF82070AF4297
:108E9000DED8EF1BDBF830804FEAD70AD8F8303045
:108EA00007F007070AF1020A9A4503D3D8F83830C9
:108EB0009A4509D94146504641F096FB8046002824
:108EC00000F05681CBF8300098F80430002B40F0C9
:108ED000E980D8F82890B9F1000F00F0F781D8F8B0
:108EE00030104346D8F80C202046AAEB010A4FF474
:108EF0000071013504F5007407EBCA0A02EB4A223F
:108F0000C847029B9D42C0D10021084627F0B4F813
:108F1000002005B0BDE8F08F8D42ACD24FF4007256
:108F2000002120464CF0ACF8A9E7722300274FF04F
:108F3000FF3C4FF0520E6122412084F8E431394663
:108F400084F8E531DBF82830A27084F8E7214FF48B
:108F5000F072E07084F8E601201D84F800E084F8E7
:108F600001E084F8ECC1C4F8E83184F8EDC184F87C
:108F7000EEC184F8EFC14CF083F855216FF0550233
:108F8000C4F8F071C4F8F471C4F8F87184F8FC7195
:108F900084F8FD7184F8FE1184F8FF216FE74FF427
:108FA0000072002120467F4F4CF06AF85821EB20D8
:108FB00002226170F82120704FF0080C61753F218A
:108FC000902384F80DC021764FF0FF3EA37000235C
:108FD00022744FF080082273A273E372E373637408
:108FE000A374E3742375A375E3756376E3766377FF
:108FF000A377E37784F81AE04FF0010E03CF3E2702
:10900000C4F80300C4F80710DBF80810DBF8100000
:109010002777081ADBF81C10634F2062DBF8180072
:1090200084F82C200E22091A84F8283084F829307C
:1090300029206162942184F82A3084F82B3084F846
:109040002D3084F82E3084F82F3084F8313084F8B5
:10905000323084F833300D2384F846C004F1470CD5
:1090600084F8420084F8431084F8442084F84530A2
:109070004E4B84F830E04FF0AA0E84F840804FF059
:10908000550807CFC4F84700CCF80410CCF80820E6
:1090900084F8FE8184F8FFE103CBC4F85200C4F8E1
:1090A0005610ECE64FF40072002120464BF0E8FF2A
:1090B000D8F84030002F63D104F120020392002B36
:1090C00000F08980D8F830301122019720460097AF
:1090D00004F140093649FFF72DFED8F840301A6CEC
:1090E000002A00F08A801B6B112201974FF4E07A6E
:1090F000039800972F49FFF71DFED8F8448018F118
:10910000000318BF0123002B3FF4B9AE4746039478
:109110000CE00024AAF1200AC146CDE900C4FFF703
:1091200009FEBF6CEFB1BAF11F0F1AD997F804E02E
:109130001122484609F12008396807F11C0C3B6BE5
:10914000BEF1000FE5D17A79AAF1200A3C69C14647
:1091500042F02102CDE900C4FFF7ECFDBF6C002F07
:10916000E1D1039C8BE6E91A204641F06FFA86E6CE
:10917000231F04F5FE7243F8046F9A42FBD17EE68A
:10918000002BD8F8448014BF02230123B8F1000F4C
:10919000C3EB071714BF012300232AD042460EE079
:1091A000DEADBEEF4CD6050858D6050868D60508D2
:1091B00044D6050848D60508E09D012033B1926CDD
:1091C000013F131C18BF0123002FF7DC9046A14676
:1091D0004FF4007A97E7DBF80C103B460197082222
:1091E00000972046DDF80C904FF4F07AFFF7A2FDCF
:1091F00083E7A1464FF4007A85E701973B46009745
:10920000112203984FF4E07A4749FFF793FD74E782
:109210004FF40072294620464BF032FF80220C2387
:1092200084F8B85184F8BE2184F8C2313F4BDBF892
:109230001020DBF8080083FB02314FEAE27C84F85F
:10924000B951CCEB213184F8BA5184F8BB51B1F556
:10925000806F84F8BC5184F8BD51C4F8C621C4F8AD
:10926000CA0142DBFF2384F8BF3184F8C13184F89E
:10927000C031421E2D4BD71783FB0231C7EB213182
:10928000B1F5806F29DA2A4B84F8C511891083FB68
:109290000203284821F03F011344C7EB6313C3EBDB
:1092A000831780FB03C0D21B1844DF170132C7EBC2
:1092B000E0100A43034484F8C42184F8C3315522E2
:1092C000AA2384F8FE2184F8FF31D8E549464FF4FB
:1092D000007220464BF0D4FED1E5FF2384F8C33161
:1092E00084F8C53184F8C431E9E7114B84F8C11121
:1092F000891083FB02730F4F21F03F011344CCEB25
:109300006313C3EB831C87FB03E7A2EB0C021F4430
:109310004FEAE37C0132CCEBE7170A433B4484F885
:10932000C02184F8BF31A4E748D6050897554541C8
:109330008320088281808080F8B50A4D04460F465C
:109340002E6894F82030012B01D00120F8BDE0698F
:1093500040F02CFDC307F8D52B689B1BBB42F0D90E
:109360000020F8BDF497012008B590F82030012BBB
:1093700001D0012008BDC06940F018FDC04300F0D5
:10938000010008BD10B500F10C0400222121204687
:1093900023F0D6FEFC222021204623F0D1FE4022DD
:1093A0002421204623F0CCFE0C222321204623F04A
:1093B000C7FE00222221204623F0C2FE64202AF0AC
:1093C000EFFE012010BD10B500F10C0401220B21AD
:1093D000204623F0B5FE20B11D220921204623F0AE
:1093E000AFFE00F0010010BD10B500F10C047022BA
:1093F0000021204623F0A4FE20220121204623F054
:109400009FFE00220221204623F09AFE64202AF0CB
:10941000C7FE012010BD3122F42123F091BE00BF10
:109420000269C3682DE9F04712EA030927D00E4606
:1094300005464FF000474FF00008B9FA89F327FAC4
:1094400003F21B3BD2432A6109EA0209042B13D819
:10945000DFE803F0322920170300736A002B34D1B0
:10946000EB6A1FFA83FA346A34B123682046514606
:1094700098476468002CF8D1B9F1000FDDD1BDE840
:10948000F0873068696B036889B29847B9F1000FBB
:10949000D3D1F4E77068A96B036889B29847B9F132
:1094A000000FCAD1EBE7B068E96B036889B298474F
:1094B000B9F1000FC1D1E2E7F068296C036889B205
:1094C0009847B9F1000FB8D1D9E703F1FF3AC6F8D0
:1094D00024801FFA8AFAC6E7F8B5EFF31184502307
:1094E00083F31288D0F800311B6813F0010303D016
:1094F000E4B284F31188F8BD90F8892190F88A11BC
:109500000A4302F02102212AF2D0D0E90912914245
:1095100045D095B247D94B1B9BB28162002590F88C
:10952000891180F894512029E2D18569D54205EB53
:109530000201DDD0B3FA83F56D09002DD8D190F882
:109540008821012AD4D0064621220120DFF864C0F8
:10955000A6F87231D6F88071C6F88C5186F8892148
:10956000134AA6F8703186F888013846C6F86C119F
:109570003D65C7E90FC2D6F82021DFF83CC028328C
:10958000C7F84CC014F073FED6F8203140221A629E
:1095900086F888519A6842F080029A60A8E7012311
:1095A00080F89431A4E706691946731B9BB2B4E7AF
:1095B00045C201087BC20108DFC10108426A10B43C
:1095C0008469A154426A04690132D0F80011A242B0
:1095D00028BF0022426241B9D0F820215DF8044B37
:1095E000136843F08003136070475DF8044B73E722
:1095F00040699C3014F04EBD426910B50832184CD9
:1096000054F8220014F046FD164B1A8823460C2A03
:109610000DD8DFE802F0070C0C0C130C0C0C190C25
:109620000C0C1F002168CA6822F40072CA60012273
:1096300083F83D2000220C4B1A7010BD2168CA68C7
:1096400022F48062CA60F2E72168CA6822F40062EC
:10965000CA60ECE72168CA6822F48052CA60E6E773
:10966000DC690120D8690120CC690120F8B5D0F867
:1096700020310446DA69910615D5586AE36AC0B20A
:10968000002B00F0CB80216B9847D4F820311A686A
:1096900022F480721A609A6822F001029A609A6934
:1096A00042F008029A61DA69D20701D501221A62F2
:1096B000DA69970701D502221A62DA69560701D5DD
:1096C00004221A62DA69150701D508221A62D4F851
:1096D0000021FAB1D969490600D4F8BDD96904F569
:1096E00090701E680F079D682CD18F0602D5B506B5
:1096F00000F1DA800F0602D5350600F1B980480680
:1097000002D5710600F18280002AE6D02046BDE82D
:10971000F840E1E6D9690806DCD594F889112129D9
:10972000D8D0D4E90901814200F09B80A069405C57
:109730000131C0B298622569B1FBF5F005FB10114B
:10974000A162C7E715F0010502D116F4907FD1D0D0
:10975000CF0701D5F7057BD48F074AD5002D6CD1F3
:109760000F0709D5B70665D508251D62D4F88C51B9
:1097700045F00805C4F88C51D4F88C51002DC3D0A5
:109780008F0605D5B50603D515F04CF8D4F8203171
:10979000D4F88C21110708D49A6812F0400204D141
:1097A000C4F88C21D4F80021AEE71A68202122F4F5
:1097B00090721A609A6822F001029A6084F88A1105
:1097C0009A685206EED59A68D4F8841122F04002C5
:1097D0009A600029E6D0414B08460B6514F034FD31
:1097E0000028DFD0D4F88401036D9847D4F8002115
:1097F0008AE74F07B4D5002DB2D004271F62D4F8F2
:109800008C7147F00207C4F88C71A9E71968202011
:1098100021F04001196084F8890175E7E369626904
:10982000D054E369E1680133B3FBF1F201FB123379
:10983000E3612AE7002D9FD096E702271F62D4F844
:109840008C7147F00407C4F88C714F0788D5D4E7B2
:1098500001271F62D4F88C7147F00107C4F88C719E
:109860007AE7A4F87221196821F08001196031E7C4
:1098700094F8891121297FF447AFB4F8721189B2A5
:10988000B9B1D4F82801D4F86C11B0F5805F19D0C3
:10989000481CC4F86C0109789962B4F87231013B34
:1098A0009BB2A4F872312FE714F0BCFFD4F800216A
:1098B0002AE7196821F080011960196841F0400118
:1098C000196021E7D4F830010028E1D131F8020B0A
:1098D000C0F308009862C4F86C11DEE7D1C101083A
:1098E000037C01681F2B0AD9203B2022496802FA19
:1098F00003F30B4214BF0123002353B97047202206
:10990000096802FA03F30B4214BF01230023002B62
:10991000F4D02DE9F04F466983B00446DFF8A88201
:10992000F50027F02FFF0746AB1908EB43135A7CCD
:10993000002A35D19E495A680978D2F80090D9B9E1
:10994000D3F8941058890A6822F001020A60D9F805
:109950000C3023EA0003C9F80C30964B1B78002B1F
:1099600037D1237C21681F2B12D8202202FA03F35F
:109970008B6003B0BDE8F08F5269136823F00103D8
:109980001360D9F80C3023F48073C9F80C30E4E785
:109990002022203B02FA03F3CB6003B0BDE8F08F36
:1099A000834A012112789974002A40F09080D3F8FC
:1099B000940059680268096822F001025D8902601A
:1099C000CB6823EA0503CB607B4A1368013313603D
:1099D000C7E7AA19794B520108EB020B5032DBF8AA
:1099E000940008EB020AC1B220F0FF001039A3FB7B
:1099F0000131090914F0A0FD0123DBF898208BF850
:109A00001130019227F0BEFEDBF88C30019A102B4A
:109A1000C2F8CC0100F0AA8065D9B3F5807F00F0D0
:109A20008480B3F5805F1FD1D9F82030DBF8441073
:109A300023F48053DBE91202C9F820301143D9F82E
:109A40001C20DBF84030014322F47F421B0342EA32
:109A5000112243F48053C9F81C20D9F8202022F4A5
:109A600020421343C9F82030AB190021534E52460F
:109A700008EB4318D8F89400C8F85810C1B220F089
:109A8000FF001039A6FB0131090914F00FFDD8F8C9
:109A9000943098F890101E68D8F804C046F010066C
:109AA000B8F80A2046481E605E68DCF80050304076
:109AB00001435960196841F001011960EB681343D3
:109AC000EB6027F05FFE3F4BC01B186049E75B6807
:109AD00059691A680B6823F001030B60D36823F4FB
:109AE0008073D36070E7012BBED1D9F82030DBF84A
:109AF000441023F00103DBE91202C9F820301143BE
:109B0000D9F81820DBF84030014322F0FF0243F07F
:109B1000010342EA1142C9F81820D9F8202022F0A6
:109B20000A021343C9F820309EE7D9F82030DBF849
:109B3000441023F48073DBE91202C9F8203011438A
:109B4000D9F81C20DBF84030014322F0FF021B0251
:109B500042EA114243F48073C9F81C20D9F820204E
:109B600022F420621343C9F820307DE7D9F8203071
:109B7000DBF8441023F01003DBE91202C9F82030AF
:109B80001143D9F81820DBF84030014322F47F421A
:109B90001B0142EA112243F01003C9F81820D9F83A
:109BA000202022F0A0021343C9F820305CE700BF58
:109BB0000C38002008380020FCAB0120ABAAAAAA70
:109BC0000000FFFF882800201038002020B1007816
:109BD000B0FA80F0400970470120704708B5202195
:109BE0004BF01DFB034618461BB102780133202AB7
:109BF000F9D008BD037903F01803082B0AD002D866
:109C00002BB100207047102B15D0182BF9D1B0F8CC
:109C10000B007047104BB0F80B0093F90030591C43
:109C200007D10E4B1B78C3EB831300EB430080B2CC
:109C30007047DBB2F7E70A4BB0F80B0093F900303E
:109C40005A1C07D1054B5B7803EB031300EB430071
:109C500080B27047DBB2F7E71D0D012084A101201F
:109C60001C0D0120F0B5067906F0E003402B09D168
:109C700044794FF0FF350023012006F00706A34288
:109C80000BD1F0BD602B4FF0010403D1457904FAEC
:109C900005F5F0E74FF0FF35EDE7042E0CD8DFE8CF
:109CA00006F0030D18242E0030B1C85CD75C784054
:109CB00028420CBF012000200133E0E70028FBD040
:109CC000C856D756A0EB070CDCF1000040EB0C00A7
:109CD000F2E70028F0D031F8130032F81370784022
:109CE00028420CBF01200020E6E70028E4D031F92B
:109CF000130032F91370C71B78427841DCE7002863
:109D0000DAD051F8230052F82370784028420CBF73
:109D100001200020D0E7024B0146186823F070BBF9
:109D2000C476012038B5441E054D14F8011F28687B
:109D300019B9BDE8384023F0D5BA23F061FBF4E748
:109D4000C47601200048EDE7E7F9050808B5FFF7FC
:109D5000E9FFBDE80840F5E710B504460348FFF702
:109D6000E1FF2046BDE81040F0E700BF64D50508DC
:109D700008B532B1C30600D519B11046FFF7ECFFA4
:109D80000022104608BD38B5074C084DAC4203D33D
:109D9000074B00221A7038BD6288D4E9010149F0EE
:109DA000E3FE1434F2E700BFE8010008C40700082E
:109DB000CC73012038B5074C074DAC4203D3074B99
:109DC00001221A7038BD6288D4E9011049F0CCFE36
:109DD0001434F2E7E8010008C4070008CC7301203E
:109DE000024A136823EA0000106070477CA4012037
:109DF0002DE9F043002489B006460D461F46A046D3
:109E000005E025290CD030460134A847039A531C9D
:109E1000039311780029F4D1204609B0BDE8F083FE
:109E2000931CCDE903385378302B43D0A3F1300293
:109E30004FF00009D2B2092A46D96C2B2BD0642BE3
:109E40007AD019D9732B5DD06AD9752B40F08B80ED
:109E500007F1040C386805AB00220A216746FEF7BB
:109E600045F905A9049A4B46304600912946FEF76C
:109E7000CDF8039A0444CAE7252B41D058D9582B72
:109E800074D0632BC2D13B1D3978304601341F4654
:109E9000A847039ABBE7039B5A1C03921B78642BC9
:109EA0005AD018D8252B2BD06DD9582B1AD0632B0C
:109EB000E9D0ACE7D31C4FF0010903939378A3F1E9
:109EC0003002D2B2092AB8D8184604AA03A940F031
:109ED0000FFC0346B1E7732B14D058D9752B32D041
:109EE000782B94D1A3F1580207F1040C386805AB24
:109EF000B2FA82F2102167465209FEF7F7F8B0E78E
:109F0000252180E7386807F1040C049A00230090AB
:109F1000294630466746FEF779F8039A044476E707
:109F20006E2B7FF473AF039A3B6804371C606EE7B7
:109F3000002B3FF471AF69E73B1D386805A91F4648
:109F4000FEF7A0F88DE7391D386805AB00220F46F3
:109F50000A21FEF7CBF884E73B1D386805A91F46A8
:109F6000FEF790F87DE7782B7FF450AFA3F158020D
:109F7000391D386805ABB2FA82F20F46102152093A
:109F8000FEF7B4F86DE7002B3FF446AF3FE76E2BCA
:109F9000CAD03CE710B5064C0B460246054920687E
:109FA000FFF726FF2068BDE8104023F09BB900BFF3
:109FB000C47601208D8B000838B504460D4608484C
:109FC000FFF7B0FE29462046FFF7E4FF0548FFF7FC
:109FD000A9FE054B1B7813B1044B01221A7038BD42
:109FE00069D5050828F4050820780120217801208A
:109FF0000FB407B504A951F8040B0191FFF7DCFF7A
:10A00000FFF7A0FE03B05DF804EB04B07047134601
:10A010000A4601460048EBE774D505080048E7E723
:10A020008DD505080FB407B504A951F8040B0191AB
:10A03000FFF7C2FF03B05DF804EB04B070470FB444
:10A0400007B504A951F8040B0191FFF7A3FFFFF72F
:10A0500079FE03B05DF804EB04B070470FB407B5A8
:10A0600004A951F8040B0191FFF794FF03B05DF8C8
:10A0700004EB04B070472DE9F843037903F0E002E4
:10A08000202A28D002D84AB1BDE8F883402A45D01A
:10A09000602AF9D12448BDE8F843D0E703F007036C
:10A0A000022B02D0042B08D06BB9B0F80720B0F80F
:10A0B00005101E48BDE8F843C1E7D0F805101C485C
:10A0C000BDE8F843BBE7B0F90720B0F90510174821
:10A0D000BDE8F843B3E745790024164E1648FFF76C
:10A0E00021FE012306EBC50292F80480A04502D8A8
:10A0F000BDE8F84326E656F835704FEA840957F86C
:10A1000024204AB113B90D48FFF70CFE57F8091087
:10A110000B48FFF7A3FF00230134E7E74179094823
:10A12000BDE8F8438BE700BFEBD50508AFD50508C0
:10A1300099D505083C870508C6D50508D7D5050873
:10A1400051EE0508DAD505082DE9F04117460279E8
:10A1500005460E4602F0E003402B2BD10024574F5A
:10A16000DFF8808115E02B7903F00703022B15D06F
:10A17000032B19D0012B384614BF315D3157FFF73F
:10A180006DFF6B79013BA34202DD4046FFF7CAFD3C
:10A1900001346B79A342E6DCBDE8F08136F8141097
:10A1A0003846FFF75BFFECE736F914103846FFF747
:10A1B00055FFE6E702F00702042A5CD8DFE802F068
:10A1C000031D25272A003478202B3AD06CD8002B89
:10A1D000E2D1B5F80560B5F8078021463748FFF7AA
:10A1E0003DFFB4423FDB44453DDC002FD4D0424626
:10A1F00031463348BDE8F04130E796F90040202B66
:10A200001FD051D8002B3CD0C6E73488DCE7B6F924
:10A210000040F4E7D6F80080202B444611D043D804
:10A22000002BB9D141462748FFF718FFD5F8051094
:10A23000884518D8002FAFD02348BDE8F0410DE77E
:10A2400000246A79214B03EBC2010979A1420ADD9E
:10A2500053F8323053F82400BDE8F04162E51C4861
:10A26000BDE8F041FAE6FFF76DFD2246296819487E
:10A27000BDE8F041D6E6202BE2D007D8002B8BD1E9
:10A280001C46B5F90560B5F90780A6E7602BE6D056
:10A29000802B81D13178104B1048002914BF3146F2
:10A2A0001946BDE8F041D9E6602BF1D16A79144135
:10A2B000E307D4D50A48BDE8F041CFE6C3D5050889
:10A2C00083EE0508ACD5050805D605083C870508CA
:10A2D0001B4306080BD605088C43060851EE0508FB
:10A2E00000D6050803D605080CB407B510F0200009
:10A2F0000BD079B92320FFF70EFD05A90498019131
:10A30000FFF748FEFFF71EFD012003B05DF804EBE8
:10A3100002B070470020F8E70CB4C30607B500D5BB
:10A3200061B905A904980191FFF734FEFFF70AFD12
:10A33000012003B05DF804EB02B070470020F8E79D
:10A340000EB410B585B0094907AC019001A854F8C6
:10A35000042B23460394FFF74BFD019B00221A7048
:10A3600005B0BDE8104003B0704700BF0180000891
:10A37000026830B41146541CD31C151D046011F83A
:10A38000024B016051780360937805601B04D0781C
:10A3900043EA0123234330BC43EA0060704700BF17
:10A3A0000368591C1A46016012F8021B02605878B3
:10A3B00041EA0020704700BF03685A1C0260187809
:10A3C000704700BF70B504460E46084648F092F943
:10A3D000314605460246206849F0C6FB20682844FD
:10A3E000206070BD38B504460068154649F0BCFBD6
:10A3F00022682A44226038BD03680A0A70B45E1CD1
:10A400000D0E0C0C06601D7003685D1C05601C7051
:10A4100003685C1C04601A7003685A1C026019709F
:10A4200070BC704703680A0A10B45C1C04601A70A0
:10A4300003685A1C026019705DF8044B704700BF36
:10A4400003680A0E70B45E1C0D0A0C0C06601970CD
:10A450000368591C01601D700368591C01601C7061
:10A460000368591C01601A7070BC704703680A0ABF
:10A4700010B45C1C046019700368591C01601A70E8
:10A480005DF8044B704700BF10EE103AB5EEC00AFD
:10A490009FED167AC3F31602DB159FED155AF1EE08
:10A4A00010FA00EE103A42F07E53DFED125A07EE3A
:10A4B000903A9FED116ADFED116AB8EEC00AA7EE7F
:10A4C000875ADFED0F4A9FED0F7A20EE240ADFED69
:10A4D0000E4A37FE247AE5EE275AA5EEA76AE6EE85
:10A4E000276AA6EEA70A30EE070A7047DACDFE3CCF
:10A4F000B9D593BE5CB8903FAA841DC022E06140EC
:10A500001872313F07F1B3C2000080FF9FED187A47
:10A51000DFED187ADFED184AE0EE077A9FED177A43
:10A520009FED175ADFED175A9FED176ADFED176A97
:10A530009FED170AC7FEE47AC7FE877AFDEEE77A39
:10A5400017EE903AC3F3160203F0FF4342F07E5237
:10A5500007EE903A07EE102AE7EE055AA5EE876A55
:10A56000E6EE076AA6EE870A20EE270A704700BFCC
:10A570003BAA384B00007E4E0000FF4E000000005A
:10A58000ED185E3C81900FBBAF9D2A3EB2D19F3E3D
:10A59000E886023FDFED2A7AB4EEE70AF1EE10FA20
:10A5A0004BDDDFED286A9FED287AB4EEC70A70EE26
:10A5B000667AF1EE10FAB0EE670AF6DC9FED237AC8
:10A5C000F4EEC77AF1EE10FA34D5DFED1E6A9FED96
:10A5D000207AF4EEC77A37EEA60AF1EE10FAF0EE22
:10A5E000407AF6D4DFED1B7AB4EEE70AF1EE10FA0A
:10A5F00014DDDFED137A37EEC00A60EE006A9FEDDE
:10A60000166A9FED167ADFED167AA6EE867A20EEB0
:10A61000266AE6EE877AA6EE270A7047DFED117A02
:10A62000B4EEE70AF1EE10FAE7D5DFED087A37EE7F
:10A63000C00AE2E7B0EE670AD4E7F0EE407ABDE781
:10A64000DB0F4940DB0FC940E4CB1641DB0F49C0AB
:10A65000E4CB16C1DB0FC93F92E741B99730083C04
:10A6600015A82ABEDB0FC9BFDFED307A30EE277A9E
:10A67000FDEEC76A16EE903A2033402B02D99FEDCB
:10A680002C0A7047B4EEE70AF1EE10FA4BDD9FEDAD
:10A69000296ADFED296AB4EEE67A77EE467AF1EEC2
:10A6A00010FAB0EE677AF6DC9FED247AF4EEC77A02
:10A6B000F1EE10FA34D5DFED1F6A9FED217AF4EE4A
:10A6C000C77A37EEA60AF1EE10FAF0EE407AF6D429
:10A6D000DFED167AB4EEE70AF1EE10FA1BDCDFEDDF
:10A6E000197AB4EEE70AF1EE10FA03D5DFED137A2A
:10A6F00037EEC00A60EE006A9FED136A9FED137A91
:10A70000DFED137AA6EE867A20EE266AE6EE877AE9
:10A71000A6EE270A7047DFED0F7A37EEC00AE9E7A9
:10A72000B0EE670AD4E7F0EE477ABDE7DB0FC93F2A
:10A7300000000000DB0FC940E4CB1641DB0F49C02D
:10A74000E4CB16C1DB0FC9BF92E741B99730083C93
:10A7500015A82ABEDB0F494007EE901A9FED827ABA
:10A76000F8EE677A27EE800A20EE070AFDEEC07A3F
:10A7700017EE903A2033402B7ED8DFED7C7AB4EE92
:10A78000E70AF1EE10FA40F3E380B0EE407A9FED75
:10A79000786ADFED786AB4EEE67A77EE467AF1EE23
:10A7A00010FAB0EE677AF6DC9FED737AF4EEC77AB2
:10A7B000F1EE10FA40F1CF809FED6D6ADFED6F6A28
:10A7C000F4EEE67A37EE867AF1EE10FAF0EE477A9A
:10A7D000F6D4DFED6B7AB4EEE77AF1EE10FA40F3DF
:10A7E000A580DFED627A37EEC77A67EE075A9FEDF4
:10A7F000655A9FED656AF7EE007ADFED646AA5EEB3
:10A80000856A9FED635A67EE254AE5EE866AF0EEAB
:10A81000675AA4EEA67AE7EE055AE7EE457A87EE88
:10A82000A55ADFED577A30EE277AFDEEC76A16EEAD
:10A83000903A2033402B24D9F6EE006A9FED557AEA
:10A84000B7EE006AF7EE004A002380ED045A8361F8
:10A85000C4EEA57A43610362C36167EEA66A27EE80
:10A86000866A27EE877AC0ED006AC0ED026A80ED45
:10A87000016A80ED037A7047B7EE005AF0EE455A50
:10A88000CFE7B4EEE70AF1EE10FA67DD9FED386A24
:10A89000DFED386AB4EEE67A77EE467AF1EE10FA3A
:10A8A000B0EE677AF6DC9FED347AF4EEC77AF1EE1B
:10A8B00010FA56D59FED2E6ADFED306AF4EEE67A97
:10A8C00037EE867AF1EE10FAF0EE477AF6D4DFED45
:10A8D0002C7AB4EEE77AF1EE10FA34DCDFED2E7A62
:10A8E000B4EEE77AF1EE10FA03D5DFED237A37EE16
:10A8F000C77A27EE074ADFED236ADFED234AB7EE7A
:10A90000006ADFED227AF8EE003AE4EE264A27EEFE
:10A91000043AF6EE006AE4EE247AA3EE277A36EEE5
:10A92000476A27EE237A66EE266A8BE7DFED1A7A0E
:10A93000B4EEE77AF1EE10FA7FF557AFDFED0E7A5D
:10A9400037EEC77A51E7DFED097A37EEC77AD0E7FD
:10A95000F0EE407A28E7B0EE677A3AE7F0EE477A11
:10A96000A1E7B0EE677AB2E727D4D236DB0F4940D1
:10A97000DB0FC940E4CB1641DB0F49C0E4CB16C165
:10A98000DB0FC93F92E741B99730083C15A82ABEB2
:10A99000F304353F00000000DB0FC9BF02B370B401
:10A9A0008E1803E0121B14D1B14215D010F8012B00
:10A9B000A2F14103192B11F8013BA3F1410598BF06
:10A9C000203203F12004192DECD9D21A01D1002B29
:10A9D000EAD1104670BC7047002270BC1046704728
:10A9E0001046704770B5044608460D4647F082FE93
:10A9F000064602E014F8013F43B13246294620469C
:10AA0000FFF7CCFF0028F5D1204670BD1C4620463C
:10AA100070BD00BF4FF0FF32FFF7C0BFA0F1610370
:10AA2000192B98BF20387047A0F14103192B98BF0C
:10AA30002030704720280BD0092809D00A2807D0D9
:10AA40000D2805D00B3801288CBF0020012070474D
:10AA500001207047613819288CBF00200120704701
:10AA6000413819288CBF0020012070473038092850
:10AA70008CBF002001207047A0F13003092B07D9BB
:10AA800020F02000413819288CBF00200120704799
:10AA9000012070472DE9F8431F46064603469846B5
:10AAA00013F8014B2046FFF7C5FF0028F7D12B2CE8
:10AAB0005AD02D2C2DD10125102A08F1010998F822
:10AAC00001403FD04FF0FF3C9046BCFBF2FC02FB44
:10AAD0000CFE6FEA0E0E5FFA8EFE09F101030020F4
:10AAE0000EE0303CE4B294421ADA60451E4602D8C9
:10AAF00023D1744521D93D404FF0FF3013F8014B6D
:10AB0000392CEED944F02004602C09D9573CE4B22A
:10AB1000E9E7102A14D04FF0FF3CC1460546D3E7C1
:10AB200001B10E6007F00107B5B1B0F1004F2FD9A8
:10AB300077B34FF00040BDE8F88300FB0840DDE745
:10AB4000C1460546302C11D04FF010086FF0704C04
:10AB50004FF00F0E4246C0E70028ECDA002F18BF76
:10AB60006FF00040BDE8F8830546A5E799F801407D
:10AB700009F101064FF010082046FFF755FF78282D
:10AB800008D0B1466FF0704C4FF00F0E4246A4E76C
:10AB90004042D0E799F802406FF0704C09F1020989
:10ABA00042464FF00F0E98E701230A22002171E779
:10ABB00070B50D461446FFF711F80646A0B1FFF731
:10ABC000F3FF40F634039842A8BF18461923B0F5A6
:10ABD000617FB8BF4FF46170A0F5617090FBF3F036
:10ABE00028702378013323703046FEF7F7FF0646BE
:10ABF000A0B1FFF7D9FF40F634039842A8BF18462A
:10AC00001923B0F5617FB8BF4FF46170A0F5617092
:10AC100090FBF3F06870237801332370304670BDE9
:10AC20000378092B01D0202B05D110F8013F202BF0
:10AC3000FBD0092BF9D02D2B00F0A9802B2B75D040
:10AC4000B7EE000AA3F13002D1B2092977D8F2EEAB
:10AC5000046ADFED5F7A07EE102A10F8013FB8EEC4
:10AC6000C77AA3F13002D1B2A7EEA67A0929F0EE95
:10AC7000477AF0D92E2B66D003F0DF03452B40F046
:10AC8000838010B442782D2A00F096802B2A00F0A1
:10AC90008380A2F130030130092B00F2848000246C
:10ACA000002303EB830302EB430310F8012FA2F10F
:10ACB0003001303B0929F4D9B3F59A7F1A46B7EE33
:10ACC000007A28BF4FF49A72072B09D91346DFED9B
:10ACD000416A083B27EE267A072BFAD802F00702D2
:10ACE000DAB1F2EE046A012A27EE267A15D0022A9A
:10ACF00027EE267A11D0032A27EE267A0DD0042AD1
:10AD000027EE267A09D0052A27EE267A05D027EEE7
:10AD1000267A062A18BF27EE267A002C45D0C7EEE1
:10AD2000877A5DF8044B20EE270A70474378B7EE28
:10AD3000000A0130A3F13002D1B2092987D92E2BA4
:10AD4000DFED237A98D143780130A3F13002D1B2FC
:10AD5000092991D8B2EE047AF0EE475A06EE902A0D
:10AD600010F8013FB8EEE66AA3F13002D1B2C6EEA8
:10AD7000076A092927EE257A77EEA67AEED903F03D
:10AD8000DF03452B3FF47DAF20EE270A7047437861
:10AD9000BFEE000A013055E782780230A2F130039D
:10ADA000092B7FF67CAFB7EE007A67EE877A5DF805
:10ADB000044B20EE270A704782780230A2F130035C
:10ADC000092B01D801246BE7B7EE007AA7E700BF93
:10ADD0000000000020BCBE4CF8B5064615460846EB
:10ADE000B6FBF2F434B905FB14640C4B1B5D00F8A0
:10ADF000013BF8BDB4FBF2F75FB905FB1747074B02
:10AE000005FB1464DA5D1B5D00F8012B00F8013BC3
:10AE1000F8BD3846FFF7E0FFEFE700BF74D605083E
:10AE2000B5EEC00ADFED6D7A00236D4AF1EE10FA3F
:10AE30002DE9F047C8BF30EE270A88B0D8BF30EE02
:10AE4000670ADFED687A0493054620EE270ACDE90C
:10AE50000233FDEEC07A17EE904A84EAE476A6EB60
:10AE6000E476A2FB06325FEAD20847D105AF5E4A1C
:10AE700039465B4B002C4FF00000A3FB06434870A3
:10AE8000A8BF20204FEAD303B8BF2D2003EB8303D4
:10AE90008DF808003846A6EB4303D35C0B7047F0EF
:10AEA00029FC01283ED0022848D003281ED039466C
:10AEB00002A84AF0A5F902A847F01CFCC41E02A98A
:10AEC0002846E4B222464AF0D1F9002328462B5501
:10AED00047F010FC02AB2E221919431C2A54E81823
:10AEE0004AF0AAF9284608B0BDE8F0873023394671
:10AEF00002A88DF809304AF083F9DCE73B4BA3FB4D
:10AF000006235B0924D105AF374A3946344BA3FBEE
:10AF10000803DB0803EB8303A8EB4303D35C01F8CE
:10AF2000013BA6E73023394602A88DF809308DF899
:10AF30000A308DF80B304AF063F9BCE7302339460C
:10AF400002A88DF809308DF80A304AF059F9B2E7B5
:10AF5000274AA2FB06125FEA92190ED105AF224AD8
:10AF600039461F48A0FB03C0C00800EB8000A3EBDC
:10AF70004003D35C01F8013BC8E71E4AA2FB06125E
:10AF80005FEA523A0FD105AF174A39461448A0FB81
:10AF900009C0C00800EB8000A9EB400912F80900C5
:10AFA00001F8010BDDE71448B6FBF0F070B905AF0E
:10AFB00038464FF00A0C01460B4ABAFBFCF00CFB7A
:10AFC00010AA12F80A0001F8010BDFE705AF0A2208
:10AFD00001933946FFF700FF019BEAE76F12033A3E
:10AFE000CDCCCCCC00007A4474D605081F85EB513B
:10AFF000D34D62105917B7D1A086010070B406680E
:10B000008E4219D94C1E751E002314F8011F082208
:10B010004B4002E0013ACBB207D059001B06F9D5EC
:10B0200081F0D503013ADBB2F7D1A542EDD1721C14
:10B030000260337070BC7047721C00230260337072
:10B0400070BC70470A44914217D0013910B4541EA5
:10B0500011F8012F0823504002E0013BD0B207D085
:10B0600042000006F9D582F0D500013BC0B2F7D10D
:10B07000A142EDD15DF8044B70477047484008236A
:10B0800002E0013BD0B208D001064FEA4002F8D5F9
:10B0900082F0D500013BC0B2F6D170470A4491421C
:10B0A0001BD0013930B4551E41F2210411F8012F93
:10B0B000082380EA022002E0013B90B209D010F49C
:10B0C000004F4FEA4002F7D084EA4000013B80B2D3
:10B0D000F5D18D42EAD130BC7047704770B5144C41
:10B0E0000222144E4FF6FF701349FFF7D7FF228854
:10B0F0004AB1A518B54218D2052A16D921462C46C0
:10B10000FFF7CCFFF3E721460222FFF7C7FF022239
:10B11000A118FFF7C3FF094BE41A094B1C8041F645
:10B120000F53C31A5842584170BD0020FCE700BFBE
:10B13000024000080080000800400008FA3F0008B4
:10B14000CE730120104A2DE93048D2E9004554EA77
:10B1500005020BD10346002240F2011110461A806D
:10B160009A809A711A815980BDE83088074B1A6815
:10B1700014EB020B45F1000C5A466346FDF702F84A
:10B180000120BDE8308800BF60850120F4970120D0
:10B190000288A2F5FA6270B402F003018478C378E1
:10B1A00040F2B55601EB4101013C124D013B04EB6D
:10B1B00081040179920806FB023235F814300489C3
:10B1C00000251344427980794FF47A7603EB4303E8
:10B1D00001EBC3030849C3EB03130144204602EB10
:10B1E0008303C3EB031301EB83032946C6FB03016F
:10B1F00070BC7047E052050880436D382DE9F04778
:10B2000007468CB01E469246002A60D11546144669
:10B210000A88B2F5FA6F37D38B78581E0B2833D8CB
:10B2200091F803C00CF1FF301E282DD891F804E0EE
:10B23000BEF1170F28D891F80590B9F13B0F23D82C
:10B2400088793B2820D8B1F80880B8F57A7F1BD2DE
:10B250004FF001086EBB002C0E890795B4BF2D215D
:10B260002B21002CCDF800C0B8BF6442CDE9030605
:10B27000CDE9051438462D49CDE901E9FFF760F81D
:10B2800040460CB0BDE8F0870022DFF8ACA04FF0DC
:10B29000010C09A91046ADF828208DF82A20634634
:10B2A000ADF82C20914696469046CDF824A0002E6D
:10B2B000D1D0CDF804E0CDF800C01D49CDE9029011
:10B2C0003846FFF73DF840460CB0BDE8F087194B13
:10B2D000D417084683FB0A235344C4EB6314C4EB1E
:10B2E000041524B2AAEB85052DB2002DB8BF6D421E
:10B2F000FFF74EFF4FF47A7200238046894647F0ED
:10B30000EFFE3C214FF47A7200230AFB010A40460B
:10B31000494647F0E5FE4FF47A7192B2002309A83E
:10B32000C1FB0A23FCF72EFF09A971E7BCD605086B
:10B330009CD60508898888880000010110B4012284
:10B340004C0901F01F0150F8243002FA01F123EA00
:10B35000010340F824305DF8044B704710B401221B
:10B360004C0901F01F0150F8243002FA01F10B439F
:10B3700040F824305DF8044B704700BF01234A09B0
:10B3800001F01F0150F8222003FA01F1114214BF0D
:10B3900018460020704700BFB0EEC07AF0EEE06AB9
:10B3A00086FE876AB5EE406AF1EE10FA3DD0C6FE21
:10B3B000C75AC5EE867ADFED1E2ADFED1E3ADFEDB5
:10B3C0001E4A9FED1E5A9FED1E3AB7EE006A9FED92
:10B3D0001D4ADFED1D5AE7EEE23AA7EE834AE7EE9B
:10B3E000A34AA7EE846AA7EEA45AE7EE855AC5EEF3
:10B3F000867AF4EEC76AF1EE10FA03D59FED137A60
:10B4000077EE677AF5EEC00AF1EE10FA03D59FEDFC
:10B41000107A77EE677AB5EEC00AF1EE10FA48BFFF
:10B42000F1EE677AB0EE670A7047DFED077AE0E782
:10B4300039094E3DE3B59E3E88FA163E45FE7F3FF4
:10B4400099FB243F69A2163EA7DFA834DB0FC93F52
:10B45000DB0F494070B544880B4605460021C4F314
:10B460000B041846224649F00BFE2969084A034698
:10B47000914202D3074A914204D341B11846BDE834
:10B48000704008472246BDE8704048F06DBB70BD73
:10B49000C40700083809000838B5064C064DAC4210
:10B4A00006D2616820461434FFF7D4FFAC42F8D3CB
:10B4B00038BD00BFE8010008C4070008084B09496F
:10B4C0008B4203D309E014338B4206D21A88C2F3AD
:10B4D0000B029042F7D11846704700231846704778
:10B4E000E8010008C40700082DE9F74F0F460025C2
:10B4F000DFF8CCA0002101903846FEF739FC00901F
:10B500002E4B0D2418686C4321F0ECFE2C4B019A55
:10B51000E3181B7903F01803934203D0002A45D1A6
:10B52000182B43D10D26544406FB05A3B3F809009C
:10B53000FFF7C4FF81462046FEF75CFB8046D9E951
:10B540000121024401442046FEF78CFB80F00101FA
:10B55000009A8346C9B23846FEF70AFCFA06009004
:10B5600002D5BBF1000F21D106FB05A6BB0636684C
:10B570000FD5BBF1000F0CD131461248FEF76EFD1E
:10B58000D9F804105A4620464144FEF7DDFDFEF787
:10B59000D9FB31460C48FEF761FDD9F808100022AE
:10B5A00020464144FEF7D0FDFEF7CCFB013540F2CA
:10B5B00007239D42A4D103B0BDE8F08FC4760120DB
:10B5C0000C8C050825D6050826D6050870B5054655
:10B5D000B0F80900FFF772FF064B044628461E78B4
:10B5E000FEF708FB16B1A368184470BD63681844E1
:10B5F000FBE700BFCC73012038B505460C46FFF7CA
:10B60000E5FF2A7902F0070302F0E002602A28D160
:10B61000022B0ED0042B18D03BB96A79012393403A
:10B620000278DBB214B11343037038BD22EA03037E
:10B63000FAE76A790123934002889BB214B113435D
:10B640000380F2E722EA0303FAE701236A7903FAA7
:10B6500002F2036814B113430360E6E723EA02032E
:10B66000FAE7042BE1D8DFE803F003030505070040
:10B670000470DAE70480D8E70460D6E738B50D46F1
:10B680000446FFF7A3FF01462A462046BDE838409E
:10B69000FEF75ABD38B5094A40F20110084B0124A3
:10B6A0004FF4205529219080042094711D809970B9
:10B6B00034F06CF808B10480C47038BD9CA101203E
:10B6C00094A1012008B5064B186838B120F05CFF42
:10B6D000044B9B7813B180F00100C0B208BD00BFDD
:10B6E0009CB00120D49D012070B53EF035FF12F0D2
:10B6F00033F91B2020F00EFD18B1232200238271A4
:10B70000C3713CF0E9FB18B1232200238271C3719D
:10B71000124CD4F8143213B10023C4F81432104B75
:10B7200001250026C4F8103284F8FC5126703EF042
:10B7300025FD0C4A0C4B9278C4F81432AA4201D071
:10B74000284670BD3833D4F83002C4F82C3215F0D6
:10B75000CBFA064B304683F8236070BDA09B0120D6
:10B76000980D01201C8C01200000012000ED00E05C
:10B77000094B0A4A1B781078834206D9084AC3F15C
:10B7800080030344106818447047C31A044A002019
:10B7900003441068184470476C6E0120F06E01205D
:10B7A000686E01202DE9F04F4FEA820987B0002230
:10B7B0000491CDE9013001EB09000B4653F8041B5D
:10B7C00083420A44FAD1019B0592002B63D0424B7D
:10B7D0001B685B880393059B002B4BD0029BDDF815
:10B7E00014B099443D4B3E4E1968039AB1FBF2FAEE
:10B7F00002FB1A1A0AEB0B0393423A4B1B688CBFED
:10B80000A2EB0A0ADA468B4251D9336857463448CC
:10B810001B69029C049D9847D6F800C0A84655F8BD
:10B82000041B30460A4691B1DCF81430B942D4F812
:10B8300000C0614622D2984755F8042C2368D6F8F8
:10B8400000C0BF1A13442360002345F8043C0434AD
:10B850004C45E3D1DCF81830304698471F4BABEB32
:10B860000A0B196851441960019B002B2CD0BBF1C5
:10B87000000FBAD1059807B0BDE8F08F3A46984757
:10B880002268D8F800303A44D6F800C0DF1B2260A6
:10B89000C8F80070DEE7124803681B689847002864
:10B8A00095D1019B0593059807B0BDE8F08F0598E9
:10B8B00000230D49A0EB0B000C4A0B700590059876
:10B8C000137007B0BDE8F08F059BA3EB0B03059346
:10B8D000059807B0BDE8F08FC8AC0120686E012064
:10B8E000649B0120D86A0120F06E01206C6E01205B
:10B8F00070B5104D84B0104E2B783278934214D02E
:10B900000E4903EB0100CDE9020110D9C3F180001B
:10B91000144604A901230222019441F8100D02A843
:10B92000FFF740FF002333702B7004B070BDD01AB6
:10B930000024EEE76C6E0120F06E0120706E012095
:10B940000A4B70B51B681546821804460E469A428B
:10B9500088BF1D1AFFF7CCFF054821462B4632460B
:10B9600005686C6AA446BDE870406047D86A01204B
:10B97000649B012013460A4601461846E0E700BFD3
:10B9800070B5194C84B0194D23782A789A4222D088
:10B99000174903EB0100CDE9020119D2C3F1800080
:10B9A000164604A900230222019641F8100D02A8B0
:10B9B000FFF7F8FE23781844C0B203062B7848BF7F
:10B9C00080F080008342207008D0002004B070BD59
:10B9D000D01A0026E5E7012004B070BD0023012045
:10B9E0002B70237004B070BD6C6E0120F06E0120CE
:10B9F000706E0120074A084B10781B78834205D9E6
:10BA0000C3F180031844C0F17F007047C01AC0F131
:10BA10007F007047F06E01206C6E012008B5044B6A
